:020000020000FC
:040000000C944E000E
:040048000C943400E0
:040050000C944800C4
:100068000F930FB70F93AF93BF93A0910401B1E023
:100078000091C6000D93A370A0930401BF91AF91A6
:100088000F910FBF0F9118950F9300E00093060191
:100098000F911895F8940FEF0DBF08E00EBF07E613
:1000A80010E00093C4001093C50008EF0093C1004E
:1000B800002700930601009304010093050178943A
:1000C8000E9479000F3FE1F30E946D00F9CFF8CF4D
:1000D800FFCF1F93109106011030E1F70093C6007F
:1000E80011E0109306011F9108951F93AF93BF93DA
:1000F800A0910501B1E010910401A11729F00D911B
:10010800A370A093050101C00FEFBF91AF911F919C
:02011800089548
:00000001FF
