:020000020000FC
:040000000C944E000E
:040048000C943400E0
:040050000C944800C4
:100068000F930FB70F93AF93BF93A0914001B1E0E7
:100078000091C6000D93AF73A0934001BF91AF915B
:100088000F910FBF0F9118950F9300E00093420155
:100098000F911895F8940FEF0DBF08E00EBFA3E479
:1000A800B1E000E010E40E94AF0007E610E0009322
:1000B800C4001093C50008EF0093C1000027009307
:1000C800420100934001009341017894EAEEF0E088
:1000D8000E94CA000E948C00E9F30E948000FACFB7
:1000E800FFCF6D6567614F532028766572203639DA
:1000F8002E343230290A0D001F931091420110301E
:10010800E1F70093C60011E0109342011F91089592
:100118001F93AF93BF93A0914101B1E010914001AB
:10012800A11729F00D91AF73A09341019894BF9145
:10013800AF911F910895AF93BF930F931F93A3E4BB
:10014800B1E010E000E41D930A95E9F71F910F91C3
:10015800BF91AF9108951F93AF93BF930D931A95D5
:10016800E9F7BF91AF911F9108950F931F93AF9334
:10017800BF93CF93DF9319911D930A95E1F7DF9110
:10018800CF91BF91AF911F910F9108950F93EF9366
:10019800FF930591002B19F00E948000FACFFF9180
:1001A800EF910F9108950F93AF93BF930D91002B8B
:1001B80019F00E948000FACFBF91AF910F91089576
:1001C800AF93BF93CF93DF931F932F9326E0A3E4BE
:1001D800B1E0CDEBD1E01D91103221F019932A95B1
:1001E80071F0F9CF10E018832AE3C3E8D1E02A952B
:1001F80031F01D9119931A30D1F710E018832F911F
:0C0208001F91DF91CF91BF91AF9108953D
:00000001FF
