:020000020000FC
:040000000C944E000E
:040048000C943400E0
:040050000C944800C4
:100068000F930FB70F93AF93BF93A0914001B1E0E7
:100078000091C6000D93AF73A0934001BF91AF915B
:100088000F910FBF0F9118950F9300E00093420155
:100098000F911895F8940FEF0DBF08E00EBFA3E875
:1000A800B1E000E010E40E94BE03ABE7B1E000E07D
:1000B80018E00E94BE03A3E4B1E000E018E30E9448
:1000C800BE0307E610E00093C4001093C50008EFD4
:1000D8000093C10000270093420100934001009360
:1000E80041017894E2EAF1E00E94D903A3E8B1E083
:1000F80000E010E40E94BE03ABE7B1E000E018E0C6
:100108000E94BE03A3E4B1E000E018E30E94BE032E
:10011800A3E8B1E00EE30E948F030E949B03E9F37A
:100128000F3739F4A338C9F30E948F0300270E93C1
:10013800F4CF0E948F030D930D3079F70E941C04B1
:100148000AE00E948F030DE00E948F03ABE7B1E045
:100158000E94E603A3E4B1E00E94E6032227CBE76E
:10016800D1E0ECE1F2E00E94F90349F023950E9406
:100178000C04E00FF11F0491033041F0F4CFE3E1E8
:10018800F1E03327220FE20FF31F0994EAECF1E0C4
:100198000E94D9030C947A00FFCF6D6567614F53B5
:1001A80020287665722036392E343230290A0D001F
:1001B800436F6D6D616E6420666F756E64210A0D04
:1001C8000000436F6D6D616E64206E6F7420666F02
:1001D800756E642E0A0D00004E6920696D706C659D
:1001E8006D656E746972616E6F206B6572206A65E9
:1001F8002062696C2070726F6772616D6572206C25
:10020800656E2E0A0D4C702070726F6772616D6595
:10021800720D0A006563686F0073757300030C94B0
:1002280083030C94890320202020202020202020D4
:1002380020202020202020202020202E2C2E2E2C74
:100248002C2A2C2C2E2E2C2C2C2C2C2C2C2A2A0D07
:100258000A202020202020202020202020202020AC
:1002680020202E2A2C2C2E2E2E2E2E2E2E2E2E2ECA
:100278002E2E2E2E2E2E2E2E2E2C2A2F0D0A2020FC
:10028800202020202020202020202020202C2C2E40
:100298002E2E2E2E2F2E2E2C2E2C2C2C2A2A2A2F88
:1002A8002A2A2A2A2A2A2C2C2A2C2A2F2F0D0A20DD
:1002B8002020202020202020202020202C2C2E2010
:1002C800202E2E2C2C2C2C2C2F2F28282323252590
:1002D8002525252523232323282F2C2C2E2E2C2A95
:1002E8000D0A20202020202020202020202E2C2A0B
:1002F8002E20202C2C2A2A2A2A2C2F282823232374
:1003080023232525252625252323232323282F2A90
:100318002E2E2E2E0D0A20202020202020202020C6
:10032800202A2E2E202E2A2A2F2F2A2A2A2F282822
:10033800282823232325252525262525232323236C
:100348002823282F2C2E2E2E2E0D0A202020202068
:1003580020202020202C2C2E2E2E2A2A2A2A2A2F12
:100368002A2F28282823232323232323252525252B
:1003780025252323232323282F2A2E2E2E2E0D0A2C
:10038800202020202020202020202E2C202E2C2A27
:100398002A2A2A2F282828282828282828282323D2
:1003A80023232323252525232323232328282A2EF3
:1003B8002E2E2E0D0A202020202020202020202034
:1003C8002E2E2E2A2A2A2C2C2C2C2A2F2F2F282866
:1003D8002828282828282828282F2A2A2A2A2F2F78
:1003E8002823232F2C2E2E2C0D0A202020202020DD
:1003F80020202020202E2E2E2C2C2A2A2C2E2E2E69
:100408002E2C2C2C2A2A2F28282F2F2A2A2E2E2E23
:100418002C2C2E2E2C2A2F23232C2E2E2E0D0A2068
:1004280020202020202020202020202C2E2A2A2A8C
:100438002E2C2A2A2020202C2E2C2C282325232A37
:100448002E2C2A2A2C2E2C282F282A2F23252A2EF8
:100458002F2F0D0A20202020202020202020202F90
:100468002E2E2F2A2C2C2C2A2F2C2C2C2C2C2C2AC0
:100478002823232328282F2A2C2C2C2C2F282323ED
:100488002F2F282F2C2A280D0A202020202020203A
:10049800202020202E2C2C2A2A2A2F2828282828D9
:1004A8002F2F2A2A2A2F232328282828282F2F2F9E
:1004B8002F2828282323232F2F2F28250D0A2020F3
:1004C8002020202020202020202C202C2A2A2F2FDA
:1004D8002828282F2A2A2A2A2C2F2828232828287F
:1004E80028282F2A2A2A2F28282828282828232578
:1004F800250D0A2020202020202020202020202E0A
:100508002A2A2A2A2A2A2E2C2A2C2A2A2A2A2F2838
:10051800282828282F2F2828282F2F2A2A2C2A282D
:10052800232A2823282E0D0A2020202020202020BE
:100538002020202020202A2A2A2A2C2C2C2A2A2C47
:100548002C2C2C2C2A2A2A2A2F2F2828282F2A2AF2
:100558002C2C2E2E2C2F2A2A0D0A20202020202059
:1005680020202020202020202A2A2F2C2F2A2C2E21
:100578002C2C2C2C2C2A2C2A2F2A2A2A2A2A232FC4
:100588002F2E2E2F2A2E2F282F0D0A202020202014
:10059800202020202020202020202A2A2A2A2F2A12
:1005A8002C2C2325232628252523262626404026AD
:1005B800262E2A282F2C282A2F0D0A2020202020FA
:1005C80020202020202020202020202C2A2A2F2FE5
:1005D8002A2A2C2E2A2523252525262623232A23A5
:1005E8002A2A282828282F2F0D0A202020202020DA
:1005F8002020202020202020202020202E2A2F2FBD
:100608002A2A2C2A2C2828282A2823282525282F56
:10061800282823282A0D0A202020202020202020D6
:1006280020202020202E2C2A2A2A2C2C2F2A2A2A45
:100638002F2F2A2A2A2F2A2F2F2F28282828232805
:10064800282F28232F23230D0A2020202020202094
:10065800202E2C2A2A2A2A2E2A2F2A202A2C2C2CF1
:100668002A2A2A2A2F2F2F2F2F2F2F2828282823CE
:10067800282A2F2828282A2F232328232325250D15
:100688000A28282F2F2F2A2A2A2C2C2A2A2A2A2ECF
:100698002A2A2E2A2A2C2C2C2C2C2F2F2F2828289B
:1006A80028282828232828282A2F2F2C2F232F28AA
:1006B8002323232323232323232823250D0A2F2A17
:1006C8002C2C2C2C2A2A2C2C2A2A2F2A2C2F2A2C68
:1006D8002C2C2C2A2A2A2C2C2A2F2F282828282868
:1006E80028282F2C2A2F2F28282A2C2F232323236E
:1006F800232323232323232525230D0A0000E0EEAB
:10070800F1E00E94D9030C947A00EEE2F2E00E9434
:10071800D9030C947A001F93109142011030E1F72D
:100728000093C60011E0109342011F9108951F9392
:10073800AF93BF93A0914101B1E010914001A1177F
:1007480029F00D91AF73A09341019894BF91AF9197
:100758001F910895AF93BF930F931F93A3E8B1E040
:1007680010E000E41D930A95E9F71F910F91BF91DE
:10077800AF9108951F93AF93BF930D931A95E9F71F
:10078800BF91AF911F9108950F931F93AF93BF939C
:10079800CF93DF9319911D930A95E1F7DF91CF91DC
:1007A800BF91AF911F910F9108950F93EF93FF930E
:1007B8000591002B19F00E948F03FACFFF91EF915A
:1007C8000F9108950F93AF93BF930D91002B19F0DC
:1007D8000E948F03FACF0AE00E948F030DE00E9467
:1007E8008F03BF91AF910F9108950F931F93CF93EC
:1007F800DF93EF93FF9309911591011711F40030DE
:10080800D1F7FF91EF91DF91CF911F910F9108954B
:10081800EF93FF930591002BE9F71F91F11B1F93AD
:100828001F2FFF910F91E01B0F930E2F0F9108952B
:10083800AF93BF93CF93DF931F932F9328E0A3E841
:10084800B1E0CBE7D1E01D91103231F0103089F0E2
:100858002A9579F01993F7CF10E0188328E3C3E4B9
:10086800D1E02A9531F01D9119931D30D1F710E090
:1008780018830E94AE032F911F91DF91CF91BF91F2
:04088800AF9108958F
:00000001FF
