:020000020000FC
:040000000C94530009
:040048000C943400E0
:040050000C944D00BF
:100068000F930FB70F93AF93BF93A0910401B1E023
:100078000091C6000D93A370A0930401009107019D
:10008800039500930701BF91AF910F910FBF0F9197
:1000980018950F9300E0009306010F911895F894B6
:1000A8000FEF0DBF08E00EBF07E610E00093C40095
:1000B8001093C50008EF0093C10001E0009306010A
:1000C8000027009304010093050178940E947F00A3
:1000D8000F3FE1F30E947300F9CFF8CFFFCF1F93D2
:1000E800109106011030E1F70093C60011E010935B
:1000F80006011F9108951F93AF93BF93A091050127
:10010800B1E010910401A11761F0109107011030BE
:1001180051F01A95109307010D91A370A093050152
:1001280003C00FEF01C00EEFBF91AF911F9108956B
:00000001FF
